:020000040000FA
:10000000D0080020010200001502000017020000C5
:10001000190200001902000019020000000000008F
:1000200000000000000000000000000019020000B5
:10003000190200000000000019020000190200006F
:100040001902000019020000190200001902000044
:100050001902000019020000190200001902000034
:100060001902000019020000190200001902000024
:100070001902000019020000190200001902000014
:100080001902000019020000190200001902000004
:1000900019020000190200001902000019020000F4
:1000A00019020000190200001902000019020000E4
:1000B00019020000190200001902000019020000D4
:1000C00019020000190200001902000019020000C4
:1000D00019020000190200001902000019020000B4
:1000E00019020000190200001902000019020000A4
:1000F0001902000019020000190200001902000094
:100100001902000019020000190200001902000083
:100110001902000019020000190200001902000073
:100120001902000019020000190200001902000063
:100130001902000019020000190200001902000053
:100140001902000019020000190200001902000043
:100150000000000000000000190200001902000069
:10016000190200001902000000000000190200003E
:100170001902000019020000190200001902000013
:100180001902000019020000190200001902000003
:1001900019020000190200001902000019020000F3
:1001A00019020000190200001902000019020000E3
:1001B00019020000190200001902000019020000D3
:1001C00019020000190200001902000019020000C3
:1001D00019020000190200001902000019020000B3
:1001E00019020000190200001902000019020000A3
:1001F0001902000019020000190200001902000093
:100200004EF68850CEF20000016841F470010160A2
:1002100000F004B8FEE7FEE7FEE7000000F002F899
:1002200000F04CF80AA090E8000C82448344AAF144
:100230000107DA4501D100F041F8AFF2090EBAE842
:100240000F0013F0010F18BFFB1A43F0010318470A
:10025000CC100000EC1000000A4410F8014B14F020
:100260000F0508BF10F8015B240908BF10F8014B07
:100270006D1E05D010F8013B6D1E01F8013BF9D150
:10028000641E03D0641E01F8015BFBD19142E4D3EC
:10029000704700000023002400250026103A28BFE4
:1002A00078C1FBD8520728BF30C148BF0B607047E8
:1002B0001FB500F0EFFD1FBD10B510BD00F041F8F7
:1002C0001146FFF7F5FF00F03DFC00F05FF803B4C6
:1002D000FFF7F2FF03BC00F067F800000248034993
:1002E000014A034B70470000D0060020D0080020D0
:1002F000D006002040EA0103024630B59B0710D12A
:100300004FF0013400E008C208C91D1B9D4315EAE7
:10031000C41FF8D013F0FF0102F8011B0DD01B0A17
:10032000F8E711F8013B002B02F8013B05D011F86A
:10033000013B002B02F8013BF3D130BD7047704701
:100340007047754600F02CF8AE46050069465346E6
:1003500020F00700854618B020B5FFF7BFFFBDE8C5
:1003600020404FF000064FF000074FF000084FF01C
:10037000000B21F00701AC46ACE8C009ACE8C009AD
:10038000ACE8C009ACE8C0098D46704710B504461A
:10039000AFF300802046BDE81040FFF798BF000093
:1003A000004870476C06002001491820ABBEFEE7EC
:1003B000260002007047D0F8003412F0010F14BF7D
:1003C0000B438B43C0F8003412F0020FD0F8202406
:1003D00014BF114322EA0101C0F820147047000045
:1003E0002DE9F04F574ED6F800C0574FDFF85C812B
:1003F0000CEA070CC44524D04FF0000C4FF0010963
:100400004FF0030AC2F3411509FA0CF40C4211D063
:10041000D0F8C4BF4FEA4C040AFA04FE2BEA0E0BD4
:10042000C0F8C4BFD0F8C4BF05FA04F44BEA040412
:10043000C0F8C44F0CF1010C0CF0FF0CBCF1080F1C
:10044000E2D3D0F800C512F0010F14BF4CEA010C42
:100450002CEA010CC0F800C5D0F804C512F0020F58
:1004600014BF4CEA010C2CEA010CC0F804C5D0F80A
:1004700008C512F0040F14BF4CEA010C2CEA010C61
:10048000C0F808C5D0F818C512F0080F14BF4CEA20
:10049000010C2CEA010CC0F818C5D6F800C00CEA13
:1004A000070CC44508D012F0100FD0F83C250CBF43
:1004B0008A430A43C0F83C25D0F80C2513F0010FFD
:1004C00014BF0A438A43C0F80C25D0F8102513F056
:1004D000020F14BF0A438A43C0F81025D0F8142530
:1004E00013F0040F14BF0A438A43C0F81425D0F850
:1004F0001C2513F0080F14BF0A438A43C0F81C25BB
:1005000032683A40424511D0D0F8442513F4007FB8
:100510000CBF8A430A43C0F84425D0F8402513F4A1
:10052000407F14BF0A438A43C0F84025D0F82825ED
:10053000002B0CBF114322EA0101C0F82815BDE8C9
:10054000F08F000000E00F400000FF700000051079
:100550000E4AC0F30741D26E01238B401A420C4A67
:100560001ABF02EBC101496852F83110020AD1F8F2
:100570002C354FF00F0C0CFA02FC00F00F0023EAB0
:100580000C0390401843C1F82C05704700E00F4061
:100590003810000050F82100704730B50C46054671
:1005A00008230122FFF71CFF21462846BDE8304002
:1005B0000122FFF700BF30B50C4605460222FFF7C7
:1005C000FAFE21462846BDE8304008230122FFF705
:1005D00007BF40F82120704730B40A4D2A680A4B03
:1005E0009A421CBFD5F800C0002207D05CF8224018
:1005F00043F82240521C9B2AF8D32B6043F820106A
:1006000030BC704708ED00E00004002010B5002069
:100610000749086000F0B0F949F62D4000F0D6F91E
:10062000044800F0C7F900F0B5F900F0ACF910BDCE
:1006300004000020A50900002DE9F003AF4D02469B
:100640002868AF4B1840A0F18053B3F5A02359D0D0
:1006500002F03809DFF8AC82C2F38414B9F1100F4C
:1006600025D0B9F1300F04BF47F230504FF40013DA
:100670000DD04FF03800904304BF4FF40040C30149
:1006800005D012F0380F1CBF0020034613D09E4F38
:1006900012F4605F4FF0000618BF00222CD057F80C
:1006A000324044457DD307EBC2025268E1E00023AB
:1006B00040461524EBE7A4F10900122822D2934802
:1006C000D5F87CC04FF04C7350F824002CF01C0C73
:1006D000072CA8BF4CF0100CC5F87CC02E6D4FF451
:1006E000002C16F4807FD2D1BCF1010C0AD02E6D03
:1006F00016F4807FF8D0CAE712F0380F18BFB9F1AE
:10070000100F04D0BDE8F0034FF000007047C2F3B3
:100710000268DFF8FCC14FF0000257F83290E14563
:1007200003D307EBC202526803E0521C062AF4D33B
:100730003246C5F8C020D5F8B020DFF8D8C102EAAB
:100740000C0242F00042C5F8B020DFF8CCC1A4F1A1
:1007500009024C1E5CF828C0A444BCFBF1FCD5F88F
:10076000B0101943C5F8B01008EBC80101EB410403
:100770006A4902EB420201EBC40101EB82046468A6
:10078000C5F86441D5F864416FF0FF0808EB0C2C04
:1007900044EA0C0CC5F864C151F82210D5F8602168
:1007A00000E061E002F400021143C5F86011D5F8E1
:1007B0006011D5F86021C1F38921C2F30904D5F88D
:1007C0006421C2F3042202F1010CD5F8642102F085
:1007D0001F02521CB0FBF2F04A09C2F10008444368
:1007E000424301EB481104EB5212484302EB9020C4
:1007F000B0FBFCF041080846002257F832C084459F
:1008000003D307EBC200466802E0521C062AF4D369
:10081000C5F8C060D5F8600110F4000F1DBFD5F811
:10082000B00040F08040C5F8B000D5F8600104BFCA
:1008300040F40000C5F860014FF40040D5F868218D
:1008400012F0010F02D1401E0028F7DC002808BF7B
:10085000002148D0D5F8B000184340F0010040F026
:100860001040C5F8B0003EE0521C062AFFF417AF56
:100870003246C5F8C020D5F8602122F40002C5F840
:100880006021D5F8B020DFF898C002EA0C0242F0EF
:100890000042C5F8B020002908BF4FF0000C0AD074
:1008A000B0FBF1FCBCF1000F18BFACF1010C0CF176
:1008B0000101B0FBF1F10846002257F832408442B2
:1008C00003D307EBC200466802E0521C062AF4D3A9
:1008D000C5F8C060D5F8B00043EA8C22104340F060
:1008E0000040C5F8B000D5F8B00020F47000C5F89D
:1008F000B000BDE8F00308467047000000E00F407C
:100900000000FF700024F400EC120000D010000082
:1009100040787D0100FC0FE0C81000003C11000091
:10092000FF0300EFC0F307230749C0B2194401F0E9
:100930007043C1F3130143EA411141EA800040F0E2
:10094000007001220260704700E60F40C0F30722EA
:100950000849C0B2114401F07042C1F3130142EAE8
:10096000411141EA800040F000700068002818BF83
:100970000120704700EA0F404FF0E020016921F0AC
:100980000101016170474FF0E020016941F005016C
:10099000016170474FF0E020016941F002010161FF
:1009A0007047000002480068401C01490860704719
:1009B0000400002010B501460F20FFF70DFE4FF098
:1009C000E020016941F00201016110BD4FF0E0211A
:1009D000401E48617047816911F0100FFBD100681B
:1009E0007047826912F0200FFBD101607047D0F888
:1009F00018C01CF0080FFAD1D0F82CC02CF0100C45
:100A0000C0F82CC0D0F830C02CF0010C2CF4407C85
:100A1000C0F830C0D0F830C0B1EB021F34BF4CF08A
:100A2000200C2CF0200CC0F830C038BF5208C90090
:100A3000B1FBF2F1491C49088A09426201F03F0109
:100A40008162C36200218161C16A41F01001C1620B
:100A5000016B40F201321143016370472DE9FC47FD
:100A6000054695F80190AE78EF78B9F1520F03D0B2
:100A7000B9F1540F37D110E0A6F13008A7F13004D6
:100A8000012C04D10121404600F00CF904E01CB90E
:100A90000021404600F006F925E0582E1CD1A7F1B0
:100AA0003004012C0BD1012000F0C8F80FA16846DA
:100AB000FFF720FC0421684600F0ACF812E08CB986
:100AC000002000F0BBF80BA16846FFF713FC0421DF
:100AD000684600F09FF805E0532E03D1542F01D152
:100AE00000F08EF900BF00BFBDE8FC8740545831CC
:100AF00000000000405458300000000010B50D48C0
:100B0000FFF710FF0C48FFF70DFF0120FFF720FD56
:100B100040F20140FFF71CFD03214FF04020FFF79A
:100B20004AFD60234FF4E132044801680448FFF7AE
:100B30005EFF10BD001800F0000800F0000000206B
:100B400000C000400EB52C492C48FFF775FD2C491C
:100B500008602C48FFF7E6FE00BF2A48FFF7F6FEC4
:100B60000028FAD02748C01FFFF7DCFE00BF254849
:100B7000C01FFFF7EBFE0028F9D002212248FFF743
:100B80000CFD01212048FFF708FD10211F48FFF749
:100B900004FD01211D48FFF700FDFFF737FDFFF7BA
:100BA000ADFF00242326002724E0042C01D10024DB
:100BB00003E01748FFF70FFFC5B227B1012F09D097
:100BC000022F16D110E0B54203D10DF804500127D1
:100BD000641C0EE0032C03D10DF80450022701E041
:100BE0000DF80450641C04E06846FFF737FF002747
:100BF00000BF00BFD9E70000005A6202100000F0F9
:100C0000000000200C0800F00040064000500240A8
:100C100000C0004070B505460E46002404E0295D82
:100C20000548FFF7DEFE641C701EA042F7DA0A21B9
:100C30000148FFF7D6FE70BD00C0004010B5044665
:100C4000012C14D1022211461448FFF7C2FC0122E4
:100C500011461248FFF7BDFC102211461048FFF75D
:100C6000B8FC012211460E48FFF7B3FC14E09CB912
:100C7000002202210948FFF7ACFC002201210748AD
:100C8000FFF7A7FC002210210548FFF7A2FC002275
:100C900001210348FFF79DFC10BD00000040064005
:100CA000005002407CB505460C4635B1012D23D0DD
:100CB000022D40D0032D7CD15CE0012C0DD102220D
:100CC00011463D48FFF785FC3CA16846FFF712FB43
:100CD00004216846FFF79EFF0DE064B9002202215F
:100CE0003548FFF776FC37A16846FFF703FB042180
:100CF0006846FFF78FFF5CE0012C0DD10122114601
:100D00002D48FFF766FC31A16846FFF7F3FA04218E
:100D10006846FFF77FFF0DE064B9002201212648F5
:100D2000FFF757FC2BA16846FFF7E4FA0421684659
:100D3000FFF770FF3DE0012C0DD11022114627482E
:100D4000FFF747FC26A16846FFF7D4FA042168465E
:100D5000FFF760FF0DE064B9002210211F48FFF784
:100D600038FC21A16846FFF7C5FA04216846FFF761
:100D700051FF1EE0012C0DD1012211461748FFF74B
:100D800028FC1BA16846FFF7B5FA04216846FFF767
:100D900041FF0DE064B9002201211048FFF719FC62
:100DA00015A16846FFF7A6FA04216846FFF732FF4F
:100DB00000BF00BF7CBD0000004006404052303103
:100DC000000000004052303000000000405231313D
:100DD000000000004052313000000000005002408E
:100DE000405232310000000040523230000000001A
:100DF0004052333100000000405233300000000008
:100E00002DE9FE4F02212148FFF7C4FB8146012155
:100E10001E48FFF7BFFB824610211D48FFF7BAFBB3
:100E2000834601211A48FFF7B5FB0090B9F1020F84
:100E300001D1082400E00024BAF1010F01D10425FA
:100E400000E00025BBF1100F01D1022600E00026D2
:100E50000098012801D1012700E0002744EA05009D
:100E600030433843403000F0FF0840208DF8040044
:100E700054208DF8050053208DF806008DF807806A
:100E8000042101A8FFF7C6FEBDE8FE8F0040064022
:100E9000005002404FF04070E1EE100A7047000031
:100EA00000400040100000000080054010000000DD
:100EB00000500040110000000090054011000000AB
:100EC000006000401200000000A005401200000079
:100ED000007000401300000000B005401300000047
:100EE000004002401400000000C005401400000053
:100EF000005002402E00000000D005402E000000EF
:100F0000006002402F00000000E005402F000000BC
:100F1000007002403000000000F00540300000008A
:100F200000D00340460000000000064046000000DC
:100F30000010064047000000002006404800000066
:100F4000003006407F0000000040064080000000A6
:100F50000050064084000000006006408C00000045
:100F6000004000401000000000800540100000001C
:100F700000500040110000000090054011000000EA
:100F8000006000401200000000A0054012000000B8
:100F9000007000401300000000B005401300000086
:100FA000004002401400000000C005401400000092
:100FB000005002402E00000000D005402E0000002E
:100FC000006002402F00000000E005402F000000FC
:100FD000007002403000000000F0054030000000CA
:100FE00000D0034043000000000006404300000022
:100FF00000100640440000000020064045000000AC
:101000000030064058000000004006405900000033
:10101000005006405C0000000060064064000000D4
:10102000007006406C000000008006406D0000006B
:10103000009006407F000000004000400080054016
:1010400000500040009005400060004000A00540B6
:101050000070004000B005400040024000C0054064
:101060000050024000D005400060024000E0054012
:101070000070024000F0054000D003400000064030
:1010800000100640001006400020064000200640E8
:101090000030064000300640004006400040064058
:1010A00000500640005006400060064000600640C8
:1010B0000070064000700640008006400080064038
:1010C000009006400090064000688909001C4E0E02
:1010D00040420F0000201C0080841E00008025007C
:1010E000999E36000040380000093D0000803E0017
:1010F00000004B00404B4C0000204E00808D5B00F8
:1011000000C05D000080700000127A0000007D00C9
:1011100080969800001BB7000080BB00C0E8CE009E
:10112000647ADA000024F4000000FA0080A81201BA
:10113000002D310100366E0140787D014000000035
:1011400000000000000100003E0008000000000058
:1011500000010000A00000000200000000010000EB
:101160003454010000000000000100002B70060054
:101170000000000000010000280000000000000046
:101180000001000027000100000000000001000035
:1011900020000000000000000001000050000000DE
:1011A00002000000000100001AAC00000000000076
:1011B0000001000017940900000000000001000079
:1011C0001698050000000000000100001400000057
:1011D0000000000000010000138008000000000073
:1011E00000010000A0000000080000000001000055
:1011F00010000000000000000001000028000000B6
:101200000200000000010000400000000400000097
:10121000000100006000000000000000000100006C
:101220005D000C0000000000000100005000000004
:1012300000000000000100004E000200000000005D
:101240000001000041AC01000000000000010000AE
:101250003C00000000000000000100003A8009008E
:10126000000000000001000030000000000000004D
:101270000001000028000000000000000001000044
:1012800027000100000000000001000023600600AC
:1012900000000000000100002160080000000000C4
:1012A000000100001E00000000000000000100001E
:1012B0001DC00400000000000001000050000000FC
:1012C0000200000000010000180000000000000003
:1012D00000010000140000000000000000010000F8
:1012E0006000000004000000000100000024F40081
:1012F00030003000005A6202910091000087930391
:10130000D200D20000B4C4041301130100E1F505BA
:1013100054015401000E2707950195013C1300006C
:10132000000000206C060000580200004C13000072
:101330006C060020640200009402000001FF01FF1F
:0C13400001FF01FF01FF01FF0179000027
:0400000500000201F4
:00000001FF
